:100000000C94A2000C94BF000C94BF000C94BF0091
:100010000C94BF000C94BF000C94BF000C94BF0064
:100020000C94BF000C94BF000C9413030C94BF00FD
:100030000C94BF000C94BF000C94BF000C94BF0044
:100040000C94BF000C94BF000C94BF000C94BF0034
:100050000C94BF00E600FF0018013101490149017D
:100060004901490149014901490149014901490140
:100070004901490149014901490149014901490130
:100080004901490149014901490149014901490120
:1000900049014901E600FF001801310156016F01D5
:1000A0008801A101B901B901B901B901B901B901C9
:1000B000B901B901B901B901B901B901B901B90170
:1000C000B901B901B901B901B901B901B901B90160
:1000D000B901B901B901B901B901B90156016F01FD
:1000E0008801A101520266027A028E02B602A202C1
:1000F00045024502450245024502450245024502C8
:1001000045024502CA02CF02D402D902E502DE024C
:1001100045024502450245024502450245024502A7
:1001200045024502EA02EF02F402F9020503FE026B
:100130004502450245024502450245024502450287
:1001400045020A0311241FBECFE5D8E0DEBFCDBFB4
:1001500010E0A0E6B0E0E2EEF9E002C005900D92FA
:10016000A236B107D9F720E0A2E6B0E001C01D92A7
:10017000A636B207E1F70E9426020C94EF040C9415
:10018000000087B1806487B987B1806887B986B17C
:10019000806886B986B1846086B986B1826086B986
:1001A000089586B1806486B93699FECF84B195B141
:1001B00090E0089590E0FC01E154F109E432F1058A
:1001C00008F067C0E65DFF4F0C94E904413059F434
:1001D0002AB381E090E002C0880F991F6A95E2F788
:1001E000822B8ABB08952AB381E090E002C0880F79
:1001F000991F6A95E2F7809582238ABB0895413062
:1002000059F427B381E090E002C0880F991F6A95E6
:10021000E2F7822B87BB089527B381E090E002C00C
:10022000880F991F6A95E2F78095822387BB08950E
:10023000413059F424B381E090E002C0880F991F47
:100240006A95E2F7822B84BB089524B381E090E0A5
:1002500002C0880F991F6A95E2F78095822384BBBC
:100260000895413059F421B381E090E002C0880F35
:10027000991F6A95E2F7822B81BB089521B381E033
:1002800090E002C0880F991F6A95E2F7809582235B
:1002900081BB089590E0FC01E154F109E432F105DD
:1002A00008F067C0E25BFF4F0C94E904413059F459
:1002B0002BB381E090E002C0880F991F6A95E2F7A6
:1002C000822B8BBB08952BB381E090E002C0880F96
:1002D000991F6A95E2F7809582238BBB0895413080
:1002E00059F428B381E090E002C0880F991F6A9505
:1002F000E2F7822B88BB089528B381E090E002C02A
:10030000880F991F6A95E2F78095822388BB08952C
:10031000413059F425B381E090E002C0880F991F65
:100320006A95E2F7822B85BB089525B381E090E0C2
:1003300002C0880F991F6A95E2F78095822385BBDA
:100340000895413059F422B381E090E002C0880F53
:10035000991F6A95E2F7822B82BB089522B381E050
:1003600090E002C0880F991F6A95E2F7809582237A
:1003700082BB08958234E9F018F4813431F055C01D
:10038000833459F18434E9F150C049B381E090E0FD
:100390009C01062E02C0220F331F0A94E2F7842F1D
:1003A00090E08223932302C0959587956A95E2F7A2
:1003B000089546B381E090E09C01062E02C0220F12
:1003C000331F0A94E2F7842F90E08223932302C024
:1003D000959587956A95E2F7089543B381E090E09B
:1003E0009C01062E02C0220F331F0A94E2F7842FCD
:1003F00090E08223932302C0959587956A95E2F752
:10040000089540B381E090E09C01062E02C0220FC7
:10041000331F0A94E2F7842F90E08223932302C0D3
:10042000959587956A95E2F7089580E0089541E0F3
:100430000E94DA00089541E00E944A01089540E0D8
:100440000E944A0108950E94BA0108950E949703EC
:100450000E94C1000E94A50362E084E40E9417028A
:1004600063E084E40E94170267E084E40E941702BC
:1004700066E084E40E94170265E084E40E941702AB
:1004800064E084E40E941702CFEF8FEF0E94A00384
:1004900090E0FC017197E033F105B8F7EE58FF4F9B
:1004A0000C94E90467E084E40E942302882339F075
:1004B00067E084E40E942302813021F402C0C0E09E
:1004C00001C0C1E08C2F0E94A003DFCF66E084E46E
:1004D0000E942302882339F066E084E40E9423020C
:1004E000813021F402C0C0E001C0C1E08C2F0E9425
:1004F000A003CBCF65E084E40E942302882339F077
:1005000065E084E40E942302813021F402C0C0E04F
:1005100001C0C1E08C2F0E94A003B7CF64E084E447
:100520000E942302882339F064E084E40E942302BD
:10053000813021F402C0C0E001C0C1E08C2F0E94D4
:10054000A003A3CF62E084E40E942302882339F051
:1005500062E084E40E942302813021F402C0C0E002
:1005600001C0C1E08C2F0E94A0038FCF63E084E420
:100570000E942302882339F063E084E40E9423026E
:10058000813021F402C0C0E001C0C1E08C2F0E9484
:10059000A0037BCF67E084E40E941B0276CF66E075
:1005A00084E40E941B0271CF65E084E40E941B0278
:1005B0006CCF64E084E40E941B0267CF0E94A50315
:1005C00062E084E40E941B0260CF63E084E40E9446
:1005D0001B025BCF67E084E40E941F0256CF66E0F7
:1005E00084E40E941F0251CF65E084E40E941F0250
:1005F0004CCF64E084E40E941F0247CF0E94B50301
:1006000062E084E40E941F0240CF63E084E40E9421
:100610001F023BCF8FEF0E94A00390E090936100F8
:100620008093600032CF1F920F920FB60F92112469
:100630002F933F934F935F936F937F938F939F93EA
:10064000AF93BF93EF93FF93809163008F5F80938D
:100650006300809163008A3008F458C010926300F0
:100660000E94D100BC0180E090E00E94EE0320E0F7
:1006700030E040E85EE30E9454040E94BF037093A0
:100680006500609364008091600090916100019624
:1006900020916400309165002817390740F062E02E
:1006A00084E40E941B0281E0809362002FC080914D
:1006B0006000909161000197209164003091650085
:1006C0008217930738F062E084E40E941F021092C0
:1006D00062001CC020916000309161008091640034
:1006E000909165002817390789F480916200813064
:1006F00029F462E084E40E941B0208C08091620039
:10070000811104C062E084E40E941F02FF91EF9116
:10071000BF91AF919F918F917F916F915F914F9119
:100720003F912F910F900FBE0F901F9018958DB194
:1007300080648DB941E066E082E40E94DA000895A9
:100740008FB9779BFECF8FB1089583B7886083BF41
:1007500080E58CBF83B7816083BF83B7846083BF2C
:10076000789489B7826089BF089583B78E7F83BFED
:1007700083B78D7F83BF83B78B7F83BF08950E942C
:10078000330488F09F5798F0B92F9927B751B0F0EC
:10079000E1F0660F771F881F991F1AF0BA95C9F705
:1007A00014C0B13091F00E944D04B1E008950C9452
:1007B0004D04672F782F8827B85F39F0B93FCCF305
:1007C000869577956795B395D9F73EF49095809582
:1007D000709561957F4F8F4F9F4F0895E89409C0A2
:1007E00097FB3EF490958095709561957F4F8F4F64
:1007F0009F4F9923A9F0F92F96E9BB279395F6957A
:10080000879577956795B795F111F8CFFAF4BB0FF7
:1008100011F460FF1BC06F5F7F4F8F4F9F4F16C05B
:10082000882311F096E911C0772321F09EE8872FE5
:10083000762F05C0662371F096E8862F70E060E0A1
:100840002AF09A95660F771F881FDAF7880F96951A
:10085000879597F9089557FD9058440F551F59F003
:100860005F3F71F04795880F97FB991F61F09F3F9D
:1008700079F087950895121613061406551FF2CFC6
:100880004695F1DF08C0161617061806991FF1CF16
:1008900086957105610508940895E894BB2766273D
:1008A0007727CB0197F908950E9467040C94D80428
:1008B0000E94CA0438F00E94D10420F0952311F060
:1008C0000C94C1040C94C70411240C944E040E948F
:1008D0002B0470F3959FC1F3950F50E0551F629F55
:1008E000F001729FBB27F00DB11D639FAA27F00D89
:1008F000B11DAA1F649F6627B00DA11D661F829FB0
:100900002227B00DA11D621F739FB00DA11D621F94
:10091000839FA00D611D221F749F3327A00D611DB1
:10092000231F849F600D211D822F762F6A2F112493
:100930009F5750409AF0F1F088234AF0EE0FFF1FC6
:10094000BB1F661F771F881F91505040A9F79E3F1D
:10095000510580F00C94C1040C944E045F3FE4F305
:10096000983ED4F3869577956795B795F795E79573
:100970009F5FC1F7FE2B880F911D9695879597F97C
:10098000089597F99F6780E870E060E008959FEF11
:1009900080EC089500240A94161617061806090616
:1009A000089500240A9412161306140605060895E5
:1009B000092E0394000C11F4882352F0BB0F40F46D
:1009C000BF2B11F460FF04C06F5F7F4F8F4F9F4FAD
:1009D0000895EE0FFF1F0590F491E02D0994F8940F
:0209E000FFCF47
:0209E2001800FB
:00000001FF
