S01300004D617374657220436F64652E737265630A
S11300000C94C4000C94E1000C94E1000C94E10005
S11300100C94E1000C94E1000C94E1000C94E100D8
S11300200C94E1000C94E1000C947D050C94E10027
S11300300C94E1000C94E1000C94E1000C94E100B8
S11300400C94E1000C94E1000C94E1000C94E100A8
S11300500C94E10017045F04AE04B404BA04C004B1
S1130060C904A304CF046605A005B905D205EB05B0
S11300700306030603060306030603060306030634
S11300800306030603060306030603060306030624
S11300900306030603060306030603060306030614
S11300A00306030603060306A005B905D205EB05FE
S11300B01006290642065B0673067306730673066A
S11300C07306730673067306730673067306730664
S11300D07306730673067306730673067306730654
S11300E07306730673067306730673067306730644
S11300F01006290642065B0683069806AD06C2066C
S1130100D606D606D606D606D606D606D606D6060B
S1130110D606D606D606D606D606D606D606D606FB
S1130120D606D606D606D606D606D606D606D606EB
S1130130D606D606D606D60683069806AD06C206A9
S1130140E606FF0618073107490749074907490723
S1130150490749074907490749074907490749071B
S1130160490749074907490749074907490749070B
S113017049074907490749074907490749074907FB
S1130180E606FF061807310711241FBECFE5D8E0A5
S1130190DEBFCDBF12E0A0E6B0E0E0E6F5E102C0CC
S11301A005900D92A238B107D9F722E0A2E8B2E097
S11301B001C01D92A538B207E1F70E94E3000C9438
S11301C0AE0A0C940000CF93DF9300D000D0CDB7DB
S11301D0DEB70E9402090E945D070E94630A60E084
S11301E083E40E947C0961E083E40E947C0962E06C
S11301F083E40E947C0980E790E00E946F0961E03B
S113020082E00E945B0981E890E00E946F092FEF71
S113021039E688E1215030408040E1F700C0000019
S11302200E94570980E091E00E945607811107C09F
S113023081E091E00E945607882309F4BAC08EE851
S113024090E00E946F0961E082E00E945B0988E906
S113025090E00E946F099FEF29E638E19150204019
S11302603040E1F700C000000E94570983EA90E0A3
S11302700E946F0961E082E00E945B0982EB90E0DA
S11302800E946F0910E020C00E949A07082F8F3F38
S1130290D9F30E9416088FEF92E527E08150904031
S11302A02040E1F700C000006CE0610F82E00E9492
S11302B05B098AE20E941608812F90E0602F8E5F0E
S11302C09E4F0E944A071F5F1430F0F260E080E006
S11302D091E00E944A070E9457098EEB90E00E9429
S11302E06F0961E082E00E945B098BEC90E00E9460
S11302F06F093FEF84E39CE0315080409040E1F788
S113030000C000000E9457090E94570988ED90E040
S11303100E946F0961E082E00E945B0987EE90E031
S11303200E946F0910E020C00E949A07082F8F3F97
S1130330D9F30E9416082FEF32E587E021503040B0
S11303408040E1F700C000006CE0610F82E00E9491
S11303505B098AE20E941608812F90E0602F8A5F71
S11303609E4F0E944A071F5F1430F0F260E081E064
S113037091E00E944A070E9457098EEB90E00E9488
S11303806F0961E082E00E945B098BEC90E00E94BF
S11303906F099FEF24E33CE0915020403040E1F7A7
S11303A000C000000E94570960E08AE091E00E94CA
S11303B04A07C12CF12C80918202813001F50E9400
S11303C09E0A10928402109283021092820261E0CB
S11303D083E40E94840960E083E40E9484090E940B
S11303E0570983EF90E00E946F098FEF99E628E1A7
S11303F0815090402040E1F700C00000F12CE12C36
S1130400B3C131E0C31227C00E94570983E091E0D1
S11304100E946F0961E082E00E945B0981E191E042
S11304200E946F0962E083E40E9480098AEA96EEE2
S113043026E931E08150904020403040D9F7000057
S113044062E083E40E94840960E08AE091E00E9413
S11304504A07E12CC12C0E94570981E291E00E94D5
S11304606F0961E082E00E945B098EE291E00E94E4
S11304706F090E949A078F3FE1F390ED980F923035
S113048080F00E9457098EE391E00E946F098FEF7C
S113049099E628E1815090402040E1F700C0000037
S11304A063C19FEF99839A839B839C83803309F470
S11304B0AAC0813309F453C157C10E9457098AE481
S11304C091E00E946F0961E082E00E945B0985E58A
S11304D091E00E946F093FEF81EE94E0315080403B
S11304E09040E1F700C00000D12C21C00D2D10E098
S11304F00E949A07E1E0F0E0EC0FFD1FE00FF11F0E
S113050080838F3F99F30E9416082FEF32E587E02E
S1130510215030408040E1F700C000006CE06D0DD8
S113052082E00E945B098AE20E941608D39493E059
S11305309D15E0F682E091E00E94560799818913A7
S113054037C083E091E00E9456079A81891330C036
S113055084E091E00E9456079B81891329C085E0BD
S113056091E00E9456079C81891322C00E9457097A
S113057081E691E00E946F0961E082E00E945B09DC
S11305808AE491E00E946F092FEF34E38CE021505C
S113059030408040E1F700C0000060E083E40E9446
S11305A080090E948E0A0E945709E12C81E02CC028
S11305B0E3940E94570980E791E00E946F0961E08B
S11305C082E00E945B098BE791E00E946F0983E35C
S11305D08E190E9416089FEF29E638E191502040B9
S11305E03040E1F700C000000E94570982E08E15F8
S11305F040F461E08AE091E00E944A07CC24C3946D
S1130600B3C08F2D01C08F2D813009F056CFF82E45
S1130610ABC00E94570987E891E00E946F0961E02E
S113062082E00E945B0985E591E00E946F099FEFDB
S113063021EE34E0915020403040E1F700C000004A
S1130640D12C21C00D2D10E00E949A07E1E0F0E0CA
S1130650EC0FFD1FE00FF11F80838F3F99F30E9481
S113066016088FEF92E527E0815090402040E1F793
S113067000C000006CE06D0D82E00E945B098AE21C
S11306800E941608D39433E03D15E0F686E091E02D
S11306900E9456079981891337C087E091E00E9430
S11306A056079A81891330C088E091E00E9456076A
S11306B09B81891329C089E091E00E9456079C819F
S11306C0891322C00E94570981E691E00E946F09B4
S11306D061E082E00E945B0987E891E00E946F0973
S11306E08FEF94E32CE0815090402040E1F700C06C
S11306F0000061E083E40E9480090E948E0A0E9447
S11307005709E12C82E02CC0E3940E94570980E74A
S113071091E00E946F0961E082E00E945B098BE72F
S113072091E00E946F0983E38E190E9416083FEF3F
S113073089E698E1315080409040E1F700C0000024
S11307400E94570922E02E1540F461E08AE091E00E
S11307500E944A07CC24C39407C08F2D01C08F2D5B
S1130760823009F056CFF82EFF2009F44ACE01E07A
S1130770BEC1802F90E0FC013197EA30F10508F00A
S1130780B6C1E65DFF4F0C94A80A0E94570982E99E
S113079091E00E946F0961E082E00E945B0931E010
S11307A0F31205C082EA91E00E946F0907C082E05B
S11307B0F81204C082EB91E00E946F098F2D0E9411
S11307C08809182F9FEF20E732E0915020403040F5
S11307D0E1F700C00000813301F1823301F183337A
S11307E001F1843319F482E0F816E9F0143319F4B2
S11307F091E0F916D1F01F3FD9F00E94570982EC1D
S113080091E00E946F092FEF34E38CE021503040D7
S11308108040E1F700C000000BC003E009C004E021
S113082007C005E005C006E003C002E001C01FEFF9
S11308301153143008F45BC180918202882309F4B7
S1130840A4CF55C10E9457098EEC91E00E946F0914
S113085061E082E00E945B0981EE91E00E946F09F1
S11308608F2D0E948809182F9FEF20E732E09150C6
S113087020403040E1F700C000008133C1F08233F2
S1130880C1F08333C1F08433C1F08F3FC9F00E94BB
S1130890570982EC91E00E946F098FEF94E32CE0FA
S11308A0815090402040E1F700C0000009C006E0FC
S11308B007C007E005C008E003C001E001C01FEF66
S11308C01153143008F413C180918202882309F46F
S11308D0B9CF0DC10E94570982EF91E00E946F09C0
S11308E061E082E00E945B0984E092E00E946F096B
S11308F08F2D0E948809182F3FEF80E792E0315036
S113090080409040E1F700C000001133B1F0123391
S1130910B1F01033B1F01F3FB9F00E94570982ECD7
S113092091E00E946F092FEF34E38CE021503040B6
S11309308040E1F700C0000007C00AE005C009E0FC
S113094003C002E001C01FEF1053133008F4CFC0FE
S113095080918202882309F4BDCFC9C06F2D83E042
S11309600E94A80901E0C3C06F2D84E00E94A80979
S113097001E0BDC06F2D85E00E94A80901E0B7C069
S11309806F2D86E00E94A80992E0F912A9C001E047
S1130990AEC06F2D87E00E94A80902E0A8C06F2DA9
S11309A089E00E94A80908E0A2C00E94570984E1D6
S11309B092E00E946F098FED0E94160883E40E9462
S11309C016086BE081E00E945B092FEF31EE84E0B2
S11309D0215030408040E1F700C000008F2D0E947C
S11309E088099FE72AE136E0915020403040E1F742
S11309F000C0000090918202913009F473C010EDA0
S1130A00180F1A3080F00E94570982EC91E00E947E
S1130A106F098FEF94E32CE0815090402040E1F780
S1130A2000C0000054C00E9416088F2D0E9488093F
S1130A303FE79AE126E0315090402040E1F700C0C2
S1130A40000090918202913009F44EC00F2EF0ED17
S1130A50EF2EF02DE80E39E03E1580F40E94570980
S1130A6082EC91E00E946F098FEF94E32CE08150B7
S1130A7090402040E1F700C0000029C00E94160801
S1130A80110F012F000F000F100F012F0E0D80E426
S1130A900E94810A3FEF81EE94E031508040904003
S1130AA0E1F700C00000802F0E94810A0E945709CC
S1130AB082E292E00E946F092FEF34E38CE0215030
S1130AC030408040E1F700C0000001C000E00111A7
S1130AD00DC080918202882309F467CF08E007C023
S1130AE002E005C008E003C008E001C008E080910E
S1130AF08202813009F03DCE5ECC1F920F920FB678
S1130B000F9211248F939F9380918302909184027A
S1130B10019690938402809383029F918F910F900A
S1130B200FBE0F901F90189590E0FC01E154F1095D
S1130B30E432F10508F067C0EC5CFF4F0C94A80A9E
S1130B40413059F42AB381E090E002C0880F991F24
S1130B506A95E2F7822B8ABB08952AB381E090E07C
S1130B6002C0880F991F6A95E2F7809582238ABB99
S1130B700895413059F427B381E090E002C0880F12
S1130B80991F6A95E2F7822B87BB089527B381E00A
S1130B9090E002C0880F991F6A95E2F7809582233E
S1130BA087BB0895413059F424B381E090E002C03A
S1130BB0880F991F6A95E2F7822B84BB089524B3AA
S1130BC081E090E002C0880F991F6A95E2F7809552
S1130BD0822384BB0895413059F421B381E090E02D
S1130BE002C0880F991F6A95E2F7822B81BB089592
S1130BF021B381E090E002C0880F991F6A95E2F763
S1130C008095822381BB089590E0FC01E154F109B1
S1130C10E432F10508F067C0E85AFF4F0C94A80AC3
S1130C20413059F42BB381E090E002C0880F991F42
S1130C306A95E2F7822B8BBB08952BB381E090E099
S1130C4002C0880F991F6A95E2F7809582238BBBB7
S1130C500895413059F428B381E090E002C0880F30
S1130C60991F6A95E2F7822B88BB089528B381E027
S1130C7090E002C0880F991F6A95E2F7809582235D
S1130C8088BB0895413059F425B381E090E002C057
S1130C90880F991F6A95E2F7822B85BB089525B3C7
S1130CA081E090E002C0880F991F6A95E2F7809571
S1130CB0822385BB0895413059F422B381E090E04A
S1130CC002C0880F991F6A95E2F7822B82BB0895B0
S1130CD022B381E090E002C0880F991F6A95E2F781
S1130CE08095822382BB08950F931F93082F10E0F1
S1130CF0F801E154F109E432F10508F057C0E45871
S1130D00FF4F0C94A80A49B381E090E09C01062EA1
S1130D1002C0220F331F0A94E2F7842F90E082234B
S1130D20932302C0959587956A95E2F7982F3EC064
S1130D3046B381E090E09C01062E02C0220F331FCF
S1130D400A94E2F7842F90E08223932302C09595BE
S1130D5087956A95E2F7982F29C043B381E090E024
S1130D609C01062E02C0220F331F0A94E2F7842F3F
S1130D7090E08223932302C0959587956A95E2F7C4
S1130D80982F14C040B381E090E09C01062E02C06D
S1130D90220F331F0A94E2F7842F90E082239323D7
S1130DA002C0959587956A95E2F7982F892F1F9130
S1130DB00F91089590E0FC01E154F109E432F1054A
S1130DC008F067C0E056FF4F0C94A80A413059F46C
S1130DD02BB381E090E002C0880F991F6A95E2F777
S1130DE0822B8BBB08952BB381E090E002C0880F67
S1130DF0991F6A95E2F7809582238BBB0895413051
S1130E0059F428B381E090E002C0880F991F6A95D5
S1130E10E2F7822B88BB089528B381E090E002C0FA
S1130E20880F991F6A95E2F78095822388BB0895FD
S1130E30413059F425B381E090E002C0880F991F36
S1130E406A95E2F7822B85BB089525B381E090E093
S1130E5002C0880F991F6A95E2F78095822385BBAB
S1130E600895413059F422B381E090E002C0880F24
S1130E70991F6A95E2F7822B82BB089522B381E021
S1130E8090E002C0880F991F6A95E2F7809582234B
S1130E9082BB08959FBB8EBB6DBB8CB384608CBB3F
S1130EA08CB382608CBBE199FECF08959FBB8EBB4F
S1130EB08CB381608CBB8DB3089541E060E084E421
S1130EC00E94940541E061E084E40E94940541E0BD
S1130ED062E084E40E94940541E063E084E40E94BB
S1130EE0940540E064E084E40E94940540E065E0F9
S1130EF084E40E94940540E066E084E40E94940542
S1130F0040E067E084E40E94940541E064E084E406
S1130F100E94DA0641E065E084E40E94DA0641E0DA
S1130F2066E084E40E94DA0641E067E084E40E941B
S1130F30DA060895EF92FF920F931F93CF93DF93F6
S1130F40CDB7DEB760970FB6F894DEBF0FBECDBF46
S1130F5080E1E0E6F0E0DE01119601900D928A95C1
S1130F60E1F7EE24EA94F12C39C041E060E084E436
S1130F700E94040641E061E084E40E94040641E02A
S1130F8062E084E40E94040641E063E084E40E9499
S1130F90040640E06F2D84E40E94040610E019C0AA
S1130FA064E0610F84E40E947406082F811110C06C
S1130FB0EF2DF0E0EE0FFF1FEE0FFF1F81E090E03A
S1130FC08C0F9D1FE80FF91FE10FF11DE08003C096
S1130FD01F5F143028F3002321F0F39493E09F154E
S1130FE020F68E2D60960FB6F894DEBF0FBECDBFEF
S1130FF0DF91CF911F910F91FF90EF90089541E001
S113100062E081E40E9404068FEC97E00197F1F717
S113101000C0000040E062E081E40E9404068FEC1E
S113102097E00197F1F700C000000895CF93C82F0F
S1131030482F407150E055954795559547955595DE
S113104047955595479563E081E40E9404064C2F2B
S1131050407250E055954795559547955595479558
S1131060559547955595479564E081E40E9404069B
S11310704C2F407450E0042E452F000C441F550B98
S1131080000C441F551F65E081E40E9404064C2FA8
S1131090441F4427441F66E081E40E94040641E0A3
S11310A061E081E40E9404060E94FF074C2F417016
S11310B063E081E40E9404064C2F427050E0559591
S11310C0479564E081E40E9404064C2F447050E08C
S11310D0559547955595479565E081E40E9404062A
S11310E0C8704C2F50E055954795559547955595A3
S11310F0479566E081E40E94040641E061E081E4F2
S11311000E9404060E94FF078FEC97E00197F1F715
S113111000C00000CF910895CF93C82F482F40718D
S113112050E055954795559547955595479555954F
S1131130479563E081E40E9404064C2F407250E01E
S11311405595479555954795559547955595479583
S11311505595479564E081E40E9404064C2F407441
S113116050E0042E452F000C441F550B000C441F67
S1131170551F65E081E40E9404064C2F441F442758
S1131180441F66E081E40E94040640E061E081E4DB
S11311900E9404060E94FF074C2F417063E081E423
S11311A00E9404064C2F427050E05595479564E028
S11311B081E40E9404064C2F447050E055954795F5
S11311C05595479565E081E40E940406C8704C2F4C
S11311D050E055954795559547955595479566E043
S11311E081E40E94040640E061E081E40E94040678
S11311F00E94FF078FEC97E00197F1F700C0000011
S1131200CF9108952FEF81EE94E0215080409040DB
S1131210E1F700C0000041E063E081E40E9494052E
S113122041E064E081E40E94940541E065E081E4EA
S11312300E94940541E066E081E40E94940541E047
S113124061E081E40E94940541E062E081E40E944F
S1131250940582E00E948C088FE19EE40197F1F7E7
S113126000C0000088E20E948C088FEC97E0019790
S1131270F1F700C000008CE00E948C088FEC97E02E
S11312800197F1F700C0000081E00E948C088FE113
S11312909EE40197F1F700C0000086E00E948C08EC
S11312A08FEC97E00197F1F700C00000089581E00A
S11312B00E948C080895813019F48FE7860F06C0C8
S11312C0823019F48FEB860F01C080E80E948C08ED
S11312D08FEC97E00197F1F700C000000895CF93D9
S11312E0DF93EC0103C00E941608219688818111C6
S11312F0FACFDF91CF91089541E00E9494050895BB
S113130041E00E940406089540E00E940406089506
S1131310CF93C82F8FEF18C020918302309184029D
S1131320283B3B4010F0C13049F0209183023091BA
S11313308402203D374030F0C23021F491E0909394
S1131340820204C00E949A078F3F31F3CF9108951F
S1131350EF92FF920F931F93CF93DF93D82FF62E24
S1131360CFEFE12C00E010E09FC00E945709D53078
S113137011F128F4D33049F0D43091F047C0D7307C
S113138081F120F1D930C1F141C083E392E00E94A0
S11313906F090F2EF1E3EF2EF02D01E211E136C0BB
S11313A08CE392E00E946F090F2EF2E3EF2EF02DF2
S11313B002E212E12BC085E492E00E946F090F2E35
S11313C0F3E3EF2EF02D03E213E120C08EE492E06C
S11313D00E946F090F2EF4E3EF2EF02D04E214E1C6
S11313E015C087E592E00E946F090F2EF5E3EF2EFA
S11313F0F02D05E215E10AC08DE592E00E946F0927
S11314000F2EF6E3EF2EF02D06E216E1812F0E9457
S1131410810A2FEF80E792E0215080409040E1F76D
S113142000C000008FEF0E94810A813029F48AE60F
S113143092E00E946F0904C08DE692E00E946F0959
S113144061E082E00E945B0981E792E00E946F09FB
S11314508F2D0E948809C82F2FEF80E792E021503A
S113146080409040E1F700C00000C13321F4802F98
S11314700E94810A19C0C23321F48E2D0E94810A70
S113148013C0CF3F89F0C03379F00E94570982EC32
S113149091E00E946F092FEF84E39CE0215080408B
S11314A09040E1F700C00000C053C33028F08091A1
S11314B08202882309F459CFDF91CF911F910F91B4
S11314C0FF90EF90089541E064E082E40E94940567
S11314D041E065E082E40E94940541E067E082E433
S11314E00E94940541E064E082E40E9404068DB108
S11314F080648DB98DB180618DB98DB181608DB9F4
S11315000895CF93C82F40E064E082E40E9404066B
S1131510CFB9779BFECF8FB1CF91089583B7886001
S113152083BF80E58CBF83B7816083BF83B784604A
S113153083BF789489B7826089BF089583B78E7F0B
S113154083BF83B78D7F83BF83B78B7F83BF0895AA
S1131550EE0FFF1F0590F491E02D0994F894FFCF4E
S11315603738392F3435362A3132332D41303D2B3B
S113157077656C636F6D6520746F20736D61727431
S113158000686F6D652073797374656D21004C6F0D
S113159067696E20666F720066697273742074697D
S11315A06D65007365742061646D696E207061738C
S11315B0730061646D696E20706173733A007061C9
S11315C07373776F726420736574007375636365F6
S11315D0737366756C6C79007365742047756573F5
S11315E07420706173730047756573742070617340
S11315F0733A0053657373696F6E2054696D656F38
S11316007574004C6F67696E20626C6F636B656400
S11316100077616974203230207365636F6E647380
S11316200053656C656374206D6F64653A00303AED
S113163041646D696E20313A477565737400777241
S11316406F6E6720696E7075740041646D696E20F9
S11316506D6F646500456E74657220706173733AD2
S11316600052696768742070617373776F726400E5
S113167057726F6E6720506173730054726965739B
S1131680206C6566743A004775657374206D6F64E9
S11316906500313A526F6F6D3120323A526F6F6D7F
S11316A03200333A526F6F6D3320343A4D6F7265A6
S11316B02000333A526F6F6D3320343A526F6F6D9E
S11316C0340057726F6E6720696E70757400313A1A
S11316D0526F6F6D3420202020323A54562020203F
S11316E000333A41697220436F6E642E343A524596
S11316F05400313A5365742054656D706572617499
S113170075726500323A636F6E74726F6C20303A92
S1131710524554005365742074656D702E3A5F5FB2
S1131720200054656D70657261747572652053652F
S11317306E7400526F6F6D3120533A00526F6F6DAB
S11317403220533A00526F6F6D3320533A00526F78
S11317506F6D3420533A00545620533A0041697255
S113176020436F6E642E20533A004F4E004F46467E
S113177000312D4F6E20322D4F666620302D52459C
S105178054000F
S9030000FC
